:060000000A128A110C280F
:10000800FE00030EF2000A08F3000A128A111528EE
:100018000A128A110F28F001F10183010A128A11CC
:100028003528831203138C1C1A281B282C2801300E
:10003800F0070318F10A0030F1070A30700671045E
:10004800031D272828282C28F001F10101308606F5
:100058008C10910173088A00720E8300FE0E7E0ECA
:1000680009008B170B17831603138C1483120313C1
:1000780092141214121792161216921591018316E1
:1000880003138601831203138601FF3083160313BB
:10009800920083120313121550280A128A110C2891
:08400000FF3FFF3FFF3FFF3FC0
:02400E00F93F78
:00000001FF
