:060000000A128A110C280F
:10000800FE00030EF1000A08F2000A128A111328F2
:100018000A128A110F2883010A128A1143288312AF
:100028000313061E1828192822281508031D1D2841
:100038001E282028F530950014309502861E2528A4
:1000480026283228F6301502031C2B282C282E28A7
:10005800013095001430F00070089507061F352808
:10006800362839280A3088003B28053088008B114B
:1000780072088A00710E8300FE0E7E0E09008B172F
:100088008B158312031397151715F930831603136D
:1000980092007D30831203139500921012141215EA
:1000A800FF30831603138600880187010530831209
:0C00B800031388005E280A128A110C282D
:08400000FF3FFF3FFF3FFF3FC0
:02400E00F93F78
:00000001FF
