:02000000D62BFD
:10071E003F340034063400345B3400344F3400343C
:10072E00663400346D3400347C34003407340034C5
:10073E007F3400346F3400348316860183128601B1
:10074E008312A301A40183122308A00020070C3EEC
:10075E0084008313000886000330A2008A30A100B3
:10076E005530A000A00BB92BA10BB92BA20BB92BA6
:10077E00C02B01308312A3070318A40A0030A4076C
:10078E002408803ACF0080304F02031DD02B0A3050
:10079E002302031CD32BD42BAA2BA72B00288F2389
:1007AE008C0090238D0091238E0092238F00932333
:1007BE009000942391009523920096239300972303
:1007CE00940098239500992396009A2397009B23D3
:1007DE0098009C2399009D239A009E239B009F23A3
:1007EE009C00A0239D00A1239E00A2239F008301B5
:0207FE00A32B2B
:08400000FF3FFF3FFF3FFF3FC0
:02400E00F93F78
:00000001FF
