:02000000D22B01
:100698003F340034063400345B3400344F340034C3
:1006A800663400346D3400347C340034073400344C
:1006B8007F3400346F340034831685018601831239
:1006C800A401A5018312A201A3018312A001A10123
:1006D8008312051085142208A60026070C3E840004
:1006E8008313000886000D30A700FB30A600A60B78
:1006F8007B2BA70B7B2B802B8312051485102408DA
:10070800A60026070C3E84008313000886000D30DF
:10071800A700FB30A600A60B8F2BA70B8F2B942BC3
:1007280001308312A0070318A10A0030A10721088D
:10073800803ACF0080304F02031DA42B05302002E1
:10074800031CA72BA82B6C2B01308312A2070318BC
:10075800A30A0030A3072308803ACF0080304F0255
:10076800031DB82B0A302202031CBB2BBC2B692BA0
:1007780001308312A4070318A50A0030A50725082D
:10078800803ACF0080304F02031DCC2B0A30240260
:10079800031CCF2BD02B662B632B00284C238C00FB
:1007A8004D238D004E238E004F238F005023900041
:1007B8005123910052239200532393005423940011
:1007C80055239500562396005723970058239800E1
:1007D800592399005A239A005B239B005C239C00B1
:1007E8005D239D005E239E005F239F00A001A10161
:0807F800A201A3018301602BA3
:08400000FF3FFF3FFF3FFF3FC0
:02400E00F93F78
:00000001FF
