:02000000DC2BF7
:10070E00093400340D3400340C3400340E3400340B
:10071E000634003407340034033400340B34003410
:10072E00013083168500860183129F01A0011F08E8
:10073E009C001C070C3E84008313000886000B30BF
:10074E009E0026309D005D309C009C0BAC2B9D0BBB
:10075E00AC2B9E0BAC2BB32B83120518B72BB82BDF
:10076E00CA2B07301F062004031DBE2BBF2BC32B25
:10077E00FF309F00FF30A00001309F070318A00A32
:10078E000030A0079E2B1F082004031DCF2BD02B5B
:10079E00D42B08309F000030A000FF309F070318B5
:1007AE00A00AFF30A0079E2B002887238C008823E9
:1007BE008D0089238E008A238F008B2390008C233B
:1007CE0091008D2392008E2393008F23940090230B
:1007DE0095009123960092239700932398009423DB
:1007EE00990095239A0096239B009F01A0018301F7
:0207FE00972B37
:08400000FF3FFF3FFF3FFF3FC0
:02400E00F93F78
:00000001FF
