:020000000B28CB
:10000800CE00030E83128F000A08900011280C28D6
:1000180083129401950183013C288B1C1428152810
:1000280033280130850006308E0013308D00AD3046
:100038008C008C0B1D288D0B1D288E0B1D28242849
:100048008312850106308E0013308D00AD308C0090
:100058008C0B2C288D0B2C288E0B2C2833288B10DE
:10006800831210088A000F0E8300CE0E4E0E090070
:100078008B170B16013083168600850183128501C4
:100088007E30831286000630930013309200AD3024
:100098009100910B4D28920B4D28930B4D28542815
:1000A800831286010B309300263092005D30910058
:1000B800910B5C28920B5C28930B5C2863284428DE
:0200C8000B2803
:08400000FF3FFF3FFF3FFF3FC0
:02400E00FD3F74
:00000001FF
