:060000000A128A110C280F
:10000800FE00030EF2000A08F3000A128A111528EE
:100018000A128A110F28F001F10183010A128A11CC
:100028003828831203130C1C1A281B282C2801308B
:10003800F0070318F10A0030F10714307006710454
:10004800031D272828282C28F001F10101308606F5
:100058000C103C308F00B0308E0073088A00720E8E
:100068008300FE0E7E0E0900F001F1018B170B17BD
:10007800831603130C14831203139012101290109A
:1000880010143C308F00B0308E00831603138601A5
:0E0098008312031386014F280A128A110C28C6
:08400000FF3FFF3FFF3FFF3FC0
:02400E00F93F78
:00000001FF
